:020000040800F2
:10000000981D042001E4020839D502083BD50208F6
:10001000B3980108B39801083DD50208D5E5020858
:100020000000000000000000000000004B9A0108E2
:100030003FD502080000000077990108D997010810
:10004000D9E50208DDE50208E1E50208E5E5020878
:10005000E9E50208EDE50208F1E50208F5E5020828
:10006000F9E50208FDE5020801E6020805E60208D6
:1000700009E602080DE6020811E6020815E6020884
:1000800019E602081DE6020821E6020825E6020834
:1000900029E602082DE6020831E6020835E60208E4
:1000A00039E6020841D502084DD502083DE60208AE
:1000B0000000000059D5020841E6020845E60208A2
:1000C00049E602084DE6020851E6020855E6020834
:1000D00059E602085DE6020861E6020865E60208E4
:1000E00069E602086DE6020871E6020875E6020894
:1000F00079E602087DE6020881E6020885E6020844
:1001000089E6020863D502088DE6020891E6020836
:1001100095E6020899E602089DE60208A1E60208B3
:10012000A5E60208A9E60208ADE60208B1E6020863
:10013000B5E60208B9E60208BDE60208C1E6020813
:10014000C5E60208C9E60208CDE60208D1E60208C3
:10015000D5E60208D9E60208DDE60208E1E6020873
:10016000E5E60208E9E60208EDE60208F1E6020823
:10017000F5E60208F9E60208FDE6020801E70208D2
:1001800005E7020809E702080DE7020811E702087F
:1001900015E7020819E702081DE7020821E702082F
:1001A00025E7020829E702082DE7020831E70208DF
:1001B00035E702080000000039E702083DE70208C1
:1001C00041E702080000000045E7020849E702088D
:1001D0004DE7020851E7020855E7020859E702080F
:1001E0005DE7020861E7020865E7020869E70208BF
:1001F00000000000000000006DE7020871E702083F
:1002000075E7020879E702087DE7020881E702083E
:1002100085E7020889E702088DE7020891E70208EE
:100220006DD5020895E7020899E702089DE70208E4
:10023000A1E70208F8B506000C0015001F00307B8E
:10024000800722D530222100300003F085FA0028F3
:100250000CD114F1300084420CD2B069844209D32D
:10026000F069401C14F13001884203D3002C01D006
:10027000F4200FE004222900300003F06DFA00287A
:1002800003D1002D01D0F42004E03A002900200021
:1002900003F094FAF2BDFEB506000C0015001F0035
:1002A000307B80074AD5DFF830090068012816D175
:1002B00014F13000844212D2DFF820098169103134
:1002C0008C420CD38169C069084414F13001884222
:1002D00005D33021200003F0D7FA002803D0002CEA
:1002E00001D0F42034E001222900300003F034FA78
:1002F00000280ED1681C854207D2B069854204D31C
:10030000F069401C691C884203D2002D01D0F42002
:100310001EE008223900300003F01EFA002801D147
:10032000F42015E0BA687968300003F015FA002867
:1003300004D17868002801D0F42009E0F868019021
:10034000B86800907B683A682900200003F000FB41
:10035000FEBD70B506000C00307B800717D530223B
:100360002100300003F0F8F900280CD114F130001E
:1003700084420CD2B069844209D3F069401C14F164
:100380003001884203D3002C01D0F4200AE0200081
:1003900003F05CFB0500002D03D1200003F088FB77
:1003A0000500280070BDFEB506000C0015001F00FA
:1003B000307B800767D530222100300003F0CCF974
:1003C00000280CD114F1300084420CD2B069844270
:1003D00009D3F069401C14F13001884203D3002C8A
:1003E00001D0F4205BE004222900300003F0B4F9CE
:1003F000002803D1002D01D0F42050E01422390050
:10040000300003F0A9F9002801D1F42047E00422CC
:100410003968300003F0A0F9002804D138680028BA
:1004200001D0F4203BE004227968300003F094F915
:10043000002804D17868002801D0F4202FE004229D
:10044000B968300003F088F9002804D1B8680028A2
:1004500001D0F42023E00422F968300003F07CF995
:10046000002804D1F868002801D0F42017E0042205
:100470003969300003F070F9002804D13869002888
:1004800001D0F4200BE038690290F8680190B86858
:1004900000907B683A682900200003F059FBFEBDFC
:1004A000F8B506000C0015001F00307B80074FD503
:1004B00030222100300003F04FF900280CD114F154
:1004C000300084420CD2B069844209D3F069401CE8
:1004D00014F13001884203D3002C01D0F4203FE016
:1004E00004222900300003F037F9002803D1002D41
:1004F00001D0F42034E00C223900300003F02CF954
:10050000002801D1F4202BE004223968300003F0E8
:1005100023F9002804D13868002801D0F4201FE016
:1005200004227968300003F017F9002804D17868B4
:10053000002801D0F42013E00422B968300003F051
:100540000BF9002804D1B868002801D0F42007E096
:10055000B86800907B683A682900200003F016FB19
:10056000F2BDF8B506000C0015001F00307B8007B7
:1005700036D504222100300003F0EEF8002803D124
:10058000002C01D0F42031E004222900300003F0D7
:10059000E3F8002803D1002D01D0F42026E0082242
:1005A0003900300003F0D8F8002801D1F4201DE014
:1005B00004223968300003F0CFF8002804D13868ED
:1005C000002801D0F42011E004227968300003F003
:1005D000C3F8002804D17868002801D0F42005E091
:1005E0007B683A682900200003F0EAFAF2BD38B5CA
:1005F00005000C00287B800717D530222100280039
:1006000003F0AAF800280CD114F1300084420CD277
:10061000A869844209D3E869401C14F1300188427A
:1006200003D3002C01D0F42002E0200003F0DEFA16
:1006300032BD70B505000C00287B80070ED5002C5C
:100640000CD0201F0600B44206D30422310028003B
:1006500003F082F8002801D1F42002E0200003F02A
:10066000D7FA70BDF8B506000C0015001F00307BEE
:1006700080072BD534222100300003F06DF80028CC
:100680000CD114F1340084420CD2B069844209D3F5
:10069000F069401C14F13401884203D3002C01D0CE
:1006A000F42019E004222900300003F055F8002856
:1006B00003D1002D01D0F4200EE0082239003000D3
:1006C00003F04AF8002801D1F42005E07B683A687D
:1006D0002900200003F0B8FAF2BDF8B506000C00BE
:1006E00015001F00307B80074AD5DFF8EC04006856
:1006F000012816D114F13400844212D2DFF8DC0450
:10070000816910318C420CD38169C069084414F1AD
:100710003401884205D33421200003F0B5F80028C5
:1007200003D0002C01D0F42032E001222900300057
:1007300003F012F800280ED1681C854207D2B06978
:10074000854204D3F069401C691C884203D2002D05
:1007500001D0F4201CE00C223900300002F0FCFF34
:10076000002801D1F42013E07A683968300002F0E3
:10077000F3FF002804D13868002801D0F42007E0F6
:10078000B86800907B683A682900200003F0BCFA42
:10079000F2BD70B506000C00307B800717D53422FF
:1007A0002100300002F0D8FF00280CD114F13400F1
:1007B00084420CD2B069844209D3F069401C14F120
:1007C0003401884203D3002C01D0F4200AE0200039
:1007D00003F010FB0500002D03D1200003F068F9A1
:1007E0000500280070BDFEB506000C0015001F00B6
:1007F000307B800767D534222100300002F0ACFF47
:1008000000280CD114F1340084420CD2B069844227
:1008100009D3F069401C14F13401884203D3002C41
:1008200001D0F4205BE004222900300002F094FFA4
:10083000002803D1002D01D0F42050E0142239000B
:10084000300002F089FF002801D1F42047E00422A3
:100850003968300002F080FF002804D13868002891
:1008600001D0F4203BE004227968300002F074FFEC
:10087000002804D17868002801D0F4202FE0042259
:10088000B968300002F068FF002804D1B868002879
:1008900001D0F42023E00422F968300002F05CFF6C
:1008A000002804D1F868002801D0F42017E00422C1
:1008B0003969300002F050FF002804D1386900285F
:1008C00001D0F4200BE038690290F8680190B86814
:1008D00000907B683A682900200003F0BDFAFEBD55
:1008E000F8B584B006000C0015001F00307B8007AF
:1008F00073D534222100300002F02EFF00280CD1E5
:1009000014F1340084420CD2B069844209D3F069F6
:10091000401C14F13401884203D3002C01D0F42090
:1009200069E004222900300002F016FF002803D1FC
:10093000002D01D0F4205EE018223900300002F0D2
:100940000BFF002801D1F42055E004223968300063
:1009500002F002FF002804D13868002801D0F420FA
:1009600049E004227968300002F0F6FE002804D144
:100970007868002801D0F4203DE00422B9683000F6
:1009800002F0EAFE002804D1B868002801D0F42063
:1009900031E00422F968300002F0DEFE002804D1C4
:1009A000F868002801D0F42025E0042239693000DD
:1009B00002F0D2FE002804D13869002801D0F420CA
:1009C00019E004227969300002F0C6FE002804D143
:1009D0007869002801D0F4200DE078690390386927
:1009E0000290F8680190B86800907B683A68290026
:1009F000200003F04FFA05B0F0BDFEB506000C0074
:100A000015001F00307B80075AD5042221003000DA
:100A100002F0A2FE002803D1002C01D0F4205BE0FC
:100A200004222900300002F097FE002803D1002D97
:100A300001D0F42050E014223900300002F08CFE86
:100A4000002801D1F42047E004223968300002F088
:100A500083FE002804D13868002801D0F4203BE050
:100A600004227968300002F077FE002804D178680B
:100A7000002801D0F4202FE00422B968300002F0F1
:100A80006BFE002804D1B868002801D0F42023E0D0
:100A90000422F968300002F05FFE002804D1F868F3
:100AA000002801D0F42017E004223969300002F058
:100AB00053FE002804D13869002801D0F4200BE04F
:100AC00038690290F8680190B86800907B683A68CD
:100AD0002900200003F008FAFEBD38B505000C001F
:100AE000287B800717D534222100280002F034FE2D
:100AF00000280CD114F1340084420CD2A86984423D
:100B000009D3E869401C14F13401884203D3002C56
:100B100001D0F42002E0200003F00AFA32BD70B5E3
:100B200005000C00287B80070FD5002C0DD0B4F1F8
:100B300008000600B44206D308223100280002F063
:100B40000BFE002801D1F42002E0200003F002FA9D
:100B500070BDF8B506000C0015001F00307B800743
:100B600033D51D480068012815D114F130008442A6
:100B700011D21A48816910318C420CD38169C06945
:100B8000084414F13001884205D33021200002F0DE
:100B90007BFE002803D0002C01D0F4201AE00122B3
:100BA0002900300002F0D8FD00280ED1681C8542D3
:100BB00007D2B069854204D3F069401C691C8842A1
:100BC00003D2002D01D0F42004E03A0029002000D7
:100BD00003F0EEF9F2BD0000701904209415042012
:100BE00070B506000C00307B800717D5302221003D
:100BF000300002F0B1FD00280CD114F13000844225
:100C00000CD2B069844209D3F069401C14F1300160
:100C1000884203D3002C01D0F4200AE0200003F026
:100C20002FFA0500002D03D1200002F041FF05003E
:100C3000280070BDF8B505000C0016001F00287BC9
:100C400080072CD530222100280002F085FD0028E5
:100C50000CD114F1300084420CD2A869844209D32B
:100C6000E869401C14F13001884203D3002C01D004
:100C7000F4201CE004227968280002F06DFD0028B1
:100C800004D17868002801D0F42010E00C2239004B
:100C9000280002F061FD002801D1F42007E0B868C7
:100CA00000907B683A683100200003F01BFAF2BD27
:100CB000FEB506000C0015001F00307B80075BD5D9
:100CC00030222100300002F047FD00280CD114F141
:100CD000300084420CD2B069844209D3F069401CD0
:100CE00014F13001884203D3002C01D0F4204DE0F0
:100CF00004222900300002F02FFD002803D1002D2E
:100D000001D0F42042E010223900300002F024FD2E
:100D1000002801D1F42039E004223968300002F0C3
:100D20001BFD002804D13868002801D0F4202DE0F4
:100D300004227968300002F00FFD002804D17868A1
:100D4000002801D0F42021E00422B968300002F02C
:100D500003FD002804D1B868002801D0F42015E074
:100D60000422F968300002F0F7FC002804D1F8688A
:100D7000002801D0F42009E0F8680190B8680090DC
:100D80007B683A682900200003F0F6F9FEBDF8B54B
:100D900006000C0015001F00307B80074FD5302265
:100DA0002100300002F0D8FC00280CD114F13000F2
:100DB00084420CD2B069844209D3F069401C14F11A
:100DC0003001884203D3002C01D0F4203FE00422FC
:100DD0002900300002F0C0FC002803D1002D01D012
:100DE000F42034E00C223900300002F0B5FC002879
:100DF00001D1F4202BE004223968300002F0ACFC71
:100E0000002804D13868002801D0F4201FE0042213
:100E10007968300002F0A0FC002804D1786800282E
:100E200001D0F42013E00422B968300002F094FCF1
:100E3000002804D1B868002801D0F42007E0B86881
:100E400000907B683A682900200003F0B1F9F2BDF8
:100E5000F8B506000C0015001F00307B800736D562
:100E600004222100300002F077FC002803D1002C7E
:100E700001D0F42031E004222900300002F06CFCA3
:100E8000002803D1002D01D0F42026E008223900EB
:100E9000300002F061FC002801D1F4201DE00422A2
:100EA0003968300002F058FC002804D13868002866
:100EB00001D0F42011E004227968300002F04CFCEB
:100EC000002804D17868002801D0F42005E07B6870
:100ED0003A682900200003F085F9F2BDF8B5050055
:100EE0000C0016001F00287B800717D53022210038
:100EF000280002F031FC00280CD114F130008442AB
:100F00000CD2A869844209D3E869401C14F130016D
:100F1000884203D3002C01D0F42004E03A003100D1
:100F2000200003F075F9F2BD2DE9F04107000C0037
:100F300015002600387B800720D53022210038009C
:100F400002F00AFC00280CD114F1300084420CD2CB
:100F5000B869844209D3F869401C14F13001884211
:100F600003D3002C01D0F42015E0002E04D030680B
:100F7000DFF8E41A884201D006200CE0002D02D1EF
:100F80005FF0000803E0B762F562DFF8D08A4146FF
:100F9000200003F061F9BDE8F081F8B506000C000F
:100FA00015001F00307B80073ED5DFF8140B00686A
:100FB000012816D114F13400844212D2DFF8A00ABD
:100FC000816910318C420CD38169C069084414F1E5
:100FD0003401884205D33421200002F055FC00285A
:100FE00003D0002C01D0F42024E00122290030009D
:100FF00002F0B2FB00280ED1681C854207D2B0690E
:10100000854204D3F069401C691C884203D2002D3C
:1010100001D0F4200EE008223900300002F09CFBE1
:10102000002801D1F42005E07B683A6829002000FF
:1010300003F026F9F2BD70B506000C00307B800786
:1010400017D534222100300002F086FB00280CD195
:1010500014F1340084420CD2B069844209D3F0699F
:10106000401C14F13401884203D3002C01D0F42039
:101070000AE0200003F076F90500002D03D12000DE
:1010800002F016FD0500280070BD70B505000C00CB
:101090001600287B800717D534222100280002F093
:1010A0005BFB00280CD114F1340084420CD2A869F7
:1010B000844209D3E869401C14F13401884203D307
:1010C000002C01D0F42003E03100200003F07CF973
:1010D00070BDFEB506000C0015001F00307B8007B8
:1010E00067D534222100300002F036FB00280CD1F5
:1010F00014F1340084420CD2B069844209D3F069FF
:10110000401C14F13401884203D3002C01D0F42098
:101110005BE004222900300002F01EFB002803D10E
:10112000002D01D0F42050E014223900300002F0EC
:1011300013FB002801D1F42047E004223968300075
:1011400002F00AFB002804D13868002801D0F420FE
:101150003BE004227968300002F0FEFA002804D156
:101160007868002801D0F4202FE00422B96830000C
:1011700002F0F2FA002804D1B868002801D0F42067
:1011800023E00422F968300002F0E6FA002804D1D6
:10119000F868002801D0F42017E0042239693000F3
:1011A00002F0DAFA002804D13869002801D0F420CE
:1011B0000BE038690290F8680190B86800907B688D
:1011C0003A682900200003F047F9FEBDFEB506008D
:1011D0000C0015001F00307B800767D534222100EA
:1011E000300002F0B9FA00280CD114F13400844226
:1011F0000CD2B069844209D3F069401C14F1340167
:10120000884203D3002C01D0F4205BE004222900A3
:10121000300002F0A1FA002803D1002D01D0F42003
:1012200050E014223900300002F096FA002801D173
:10123000F42047E004223968300002F08DFA0028DB
:1012400004D13868002801D0F4203BE004227968FA
:10125000300002F081FA002804D17868002801D01B
:10126000F4202FE00422B968300002F075FA00285B
:1012700004D1B868002801D0F42023E00422F968E2
:10128000300002F069FA002804D1F868002801D083
:10129000F42017E004223969300002F05DFA0028DA
:1012A00004D13869002801D0F4200BE0386902909D
:1012B000F8680190B86800907B683A6829002000BF
:1012C00003F0E8F8FEBDFEB506000C0015001F0097
:1012D000307B80074ED504222100300002F03CFA1A
:1012E000002803D1002C01D0F4204DE00422290075
:1012F000300002F031FA002803D1002D01D0F42093
:1013000042E010223900300002F026FA002801D114
:10131000F42039E004223968300002F01DFA002878
:1013200004D13868002801D0F4202DE00422796827
:10133000300002F011FA002804D17868002801D0AA
:10134000F42021E00422B968300002F005FA0028F8
:1013500004D1B868002801D0F42015E00422F9680F
:10136000300002F0F9F9002804D1F868002801D013
:10137000F42009E0F8680190B86800907B683A684A
:101380002900200003F0AAF8FEBD38B505000C00C6
:10139000287B800717D534222100280002F0DCF9D1
:1013A00000280CD114F1340084420CD2A869844284
:1013B00009D3E869401C14F13401884203D3002C9E
:1013C00001D0F42002E0200003F0A8F832BD38B5C7
:1013D00005000C00287B800717D534222100280047
:1013E00002F0BAF900280CD114F1340084420CD276
:1013F000A869844209D3E869401C14F13401884289
:1014000003D3002C01D0F42002E0200003F098F870
:1014100032BDFEB506000C0015001F00307B8007B2
:101420004AD5DFF89C060068012816D114F1440063
:10143000844212D2DFF82806816910318C420CD325
:101440008169C069084414F14401884205D34421EC
:10145000200002F019FA002803D0002C01D0F4205B
:1014600034E001222900300002F076F900280ED184
:10147000681C854207D2B069854204D3F069401CDC
:10148000691C884203D2002D01D0F4201EE01022F6
:101490003900300002F060F9002801D1F42015E095
:1014A000BA687968300002F057F9002804D17868EA
:1014B000002801D0F42009E0F8680190B868009095
:1014C0007B683A682900200003F066F8FEBD70B51D
:1014D00006000C00307B800717D544222100300025
:1014E00002F03AF900280CD114F1440084420CD2E5
:1014F000B069844209D3F069401C14F14401884268
:1015000003D3002C01D0F4200AE0200003F0C8F837
:101510000500002D03D1200002F0CAFA05002800C2
:1015200070BD38B505000C00287B800717D5442214
:101530002100280002F010F900280CD114F1440019
:1015400084420CD2A869844209D3E869401C14F192
:101550004401884203D3002C01D0F42002E0200093
:1015600003F0D0F832BD2DE9F04106000C00150063
:101570001F00307B800733D544222100300002F069
:10158000EBF800280CD114F1440084420CD2B0696D
:10159000844209D3F069401C14F14401884203D30A
:1015A000002C01D0F42020E0A046D8F80820290023
:1015B000300002F0D1F8002812D1D8F80800401904
:1015C000854209D2B069854206D3F069401CD8F83B
:1015D00008104919884203D2002D01D0F42004E0FC
:1015E0003A002900200003F09FF8BDE8F081FEB525
:1015F00006000C0015001F00307B800767D54422D1
:101600002100300002F0A8F800280CD114F14400A9
:1016100084420CD2B069844209D3F069401C14F1B1
:101620004401884203D3002C01D0F4205BE0042263
:101630002900300002F090F8002803D1002D01D0DD
:10164000F42050E014223900300002F085F8002820
:1016500001D1F42047E004223968300002F07CF820
:10166000002804D13868002801D0F4203BE004228F
:101670007968300002F070F8002804D178680028FA
:1016800001D0F4202FE00422B968300002F064F8A1
:10169000002804D1B868002801D0F42023E00422F7
:1016A000F968300002F058F8002804D1F8680028E2
:1016B00001D0F42017E004223969300002F04CF820
:1016C000002804D13869002801D0F4200BE03869E3
:1016D0000290F8680190B86800907B683A68290029
:1016E000200003F05FF8FEBDFEB506000C001500FB
:1016F0001F00307B800767D544222100300002F0B4
:101700002BF800280CD114F1440084420CD2B069AB
:10171000844209D3F069401C14F14401884203D388
:10172000002C01D0F4205BE004222900300002F0FC
:1017300013F8002803D1002D01D0F42050E014222A
:101740003900300002F008F8002801D1F42047E009
:1017500004223968300001F0FFFF002804D1386806
:10176000002801D0F4203BE004227968300001F029
:10177000F3FF002804D17868002801D0F4202FE07E
:101780000422B968300001F0E7FF002804D1B868EE
:10179000002801D0F42023E00422F968300001F091
:1017A000DBFF002804D1F868002801D0F42017E0FE
:1017B00004223969300001F0CFFF002804D13869D4
:1017C000002801D0F4200BE038690290F8680190FD
:1017D000B86800907B683A682900200003F000F8A0
:1017E000FEBDFEB506000C0015001F00307B800713
:1017F0004ED504222100300001F0AEFF002803D1B5
:10180000002C01D0F4204DE004222900300001F02A
:10181000A3FF002803D1002D01D0F42042E01022C4
:101820003900300001F098FF002801D1F42039E0A0
:1018300004223968300001F08FFF002804D1386895
:10184000002801D0F4202DE004227968300001F056
:1018500083FF002804D17868002801D0F42021E01B
:101860000422B968300001F077FF002804D1B8687D
:10187000002801D0F42015E00422F968300001F0BE
:101880006BFF002804D1F868002801D0F42009E09B
:10189000F8680190B86800907B683A6829002000D9
:1018A00002F0C2FFFEBD38B505000C00287B8007A2
:1018B00017D544222100280001F04EFF00280CD14A
:1018C00014F1440084420CD2A869844209D3E86927
:1018D000401C14F14401884203D3002C01D0F420B1
:1018E00002E0200002F0C0FF32BD2DE9F041060009
:1018F0000C0015001F00307B800725D544222100F5
:10190000300001F029FF00280CD114F1440084427A
:101910000CD2B069844209D3F069401C14F144012F
:10192000884203D3002C01D0F42012E0A046D8F85E
:10193000080082002900300001F00EFF002803D1CA
:10194000002D01D0F42004E03A002900200002F02C
:101950009DFFBDE8F0812DE9F04106000C00150067
:101960001F00307B800736D544222100300001F073
:10197000F3FE00280CD114F1440084420CD2B0696B
:10198000844209D3F069401C14F14401884203D316
:10199000002C01D0F42023E0A046D8F808008200F3
:1019A0002900300001F0D8FE002814D1D8F8080032
:1019B00015EB800085420AD2B069854207D3F069F1
:1019C000401CD8F8081015EB8101884203D2002D85
:1019D00001D0F42004E03A002900200002F094FF36
:1019E000BDE8F0812DE9F04107000C00150026004C
:1019F000387B800720D544222100380001F0ACFE5E
:101A000000280CD114F1440084420CD2B8698442FD
:101A100009D3F869401C14F14401884203D3002C17
:101A200001D0F42015E0002E04D03068DFF8B016A5
:101A3000884201D009200CE0002D02D15FF000089F
:101A400003E0F7633564DFF89C864146200002F02E
:101A500099FFBDE8F08100004E4456442DD00208A5
:101A60009415042070B505000C001600287B800733
:101A700017D528222100280001F06EFE00280CD185
:101A800014F1280084420CD2A869844209D3E86981
:101A9000401C14F12801884203D3002C01D0F4200B
:101AA00003E03100200002F081FF70BDF8B50600B0
:101AB0000C0015001F00307B800740D5004801E076
:101AC000701904200068012816D114F128008442FE
:101AD00012D2DFF81406816910318C420CD381696F
:101AE000C069084414F12801884205D32821200048
:101AF00001F0CAFE002803D0002C01D0F42024E01D
:101B000001222900300001F027FE00280ED1681CB8
:101B1000854207D2B069854204D3F069401C691C34
:101B2000884203D2002D01D0F4200EE008223900B3
:101B3000300001F011FE002801D1F42005E07B689F
:101B40003A682900200002F049FFF2BD70B5060096
:101B50000C00307B800717D528222100300001F0CF
:101B6000FBFD00280CD114F1280084420CD2B0698E
:101B7000844209D3F069401C14F12801884203D340
:101B8000002C01D0F4200AE0200002F093FF0500B1
:101B9000002D03D1200001F08BFF0500280070BD4F
:101BA00070B505000C001600287B800717D5282289
:101BB0002100280001F0D0FD00280CD114F12800EC
:101BC00084420CD2A869844209D3E869401C14F10C
:101BD0002801884203D3002C01D0F42003E0310017
:101BE000200002F099FF70BDFEB506000C00150044
:101BF0001F00307B80075BD528222100300001F0D8
:101C0000ABFD00280CD114F1280084420CD2B0693D
:101C1000844209D3F069401C14F12801884203D39F
:101C2000002C01D0F4204DE004222900300001F006
:101C300093FD002803D1002D01D0F42042E01022B2
:101C40003900300001F088FD002801D1F42039E08E
:101C500004223968300001F07FFD002804D1386883
:101C6000002801D0F4202DE004227968300001F032
:101C700073FD002804D17868002801D0F42021E009
:101C80000422B968300001F067FD002804D1B8686B
:101C9000002801D0F42015E00422F968300001F09A
:101CA0005BFD002804D1F868002801D0F42009E089
:101CB000F8680190B86800907B683A6829002000B5
:101CC00002F060FFFEBDF8B506000C0015001F0015
:101CD000307B80074FD528222100300001F03CFDE9
:101CE00000280CD114F1280084420CD2B06984423F
:101CF00009D3F069401C14F12801884203D3002C59
:101D000001D0F4203FE004222900300001F024FD3E
:101D1000002803D1002D01D0F42034E00C2239003A
:101D2000300001F019FD002801D1F4202BE004223D
:101D30003968300001F010FD002804D1386800280F
:101D400001D0F4201FE004227968300001F004FD86
:101D5000002804D17868002801D0F42013E0042280
:101D6000B968300001F0F8FC002804D1B8680028F8
:101D700001D0F42007E0B86800907B683A68290039
:101D8000200002F01BFFF2BDF8B506000C001500A4
:101D90001F00307B800736D504222100300001F07F
:101DA000DBFC002803D1002C01D0F42031E0042218
:101DB0002900300001F0D0FC002803D1002D01D013
:101DC000F42026E008223900300001F0C5FC00288C
:101DD00001D1F4201DE004223968300001F0BCFC80
:101DE000002804D13868002801D0F42011E0042232
:101DF0007968300001F0B0FC002804D17868002830
:101E000001D0F42005E07B683A682900200002F048
:101E1000EFFEF2BD38B505000C00287B800717D512
:101E200028222100280001F097FC00280CD114F191
:101E3000280084420CD2A869844209D3E869401C76
:101E400014F12801884203D3002C01D0F42002E0D1
:101E5000200002F0E3FE32BD38B505000C00287BFF
:101E6000800717D528222100280001F075FC0028E2
:101E70000CD114F1280084420CD2A869844209D301
:101E8000E869401C14F12801884203D3002C01D0DA
:101E9000F42002E0200002F0D3FE32BD2DE9F04133
:101EA00007000C0015002600387B800720D528226B
:101EB0002100380001F050FC00280CD114F128005A
:101EC00084420CD2B869844209D3F869401C14F1E9
:101ED0002801884203D3002C01D0F42015E0002E05
:101EE00004D03068DFF8EC1A884201D00C200CE0F6
:101EF000002D02D15FF0000803E037627562DFF861
:101F0000D88A4146200002F0ADFEBDE8F081F0B570
:101F100089B006000C0015001F00307B800757D5E4
:101F2000DFF8B80A0068012815D114F1E8008442EE
:101F300011D26D48816910318C420CD38169C0691E
:101F4000084414F1E801884205D3E821200001F09B
:101F50009BFC002803D0002C01D0F4204FE001228C
:101F60002900300001F0F8FB00280ED1681C8542E2
:101F700007D2B069854204D3F069401C691C8842CD
:101F800003D2002D01D0F42039E0242239003000A2
:101F900001F0E2FB002801D1F42030E0FA68B968D2
:101FA000300001F0D9FB002804D1B868002801D026
:101FB000F42024E03869D6F89814884201D20F2022
:101FC0001DE07869D6F89814884201D2182016E0EE
:101FD0000896386A0790F8690690B869059078699C
:101FE000049038690390F8680290B86801907868A6
:101FF00000903B68726D2900200002F047FE09B096
:10200000F0BD70B506000C00307B800717D5E822C4
:102010002100300001F0A0FB00280CD114F1E800F1
:1020200084420CD2B069844209D3F069401C14F197
:10203000E801884203D3002C01D0F4200AE02000FC
:1020400002F0E8FF0500002D03D1200001F030FD73
:102050000500280070BD2DE9F84380460C001500EE
:10206000260098F80C00800728D5E8222100404679
:1020700001F072FB00280ED114F1E80084420ED268
:10208000D8F8180084420AD3D8F81C00401C14F178
:10209000E801884203D3002C01D0F4201DE0002E7B
:1020A00004D03068DFF83819884201D00E2014E0DF
:1020B000D6F89000404501D0F2200EE0002D02D16C
:1020C0005FF0000905E0D6F894000700BD61DFF875
:1020D00014994946200002F0BBFFBDE8F2830000DE
:1020E00055455551ADD0020894150420F8B50400AB
:1020F0000D0016001F0002F0BFFFF2BDF0B585B065
:1021000006000C0015001F00307B800740F1808026
:10211000E8222100300001F01FFB00280CD114F14F
:10212000E80084420CD2B069844209D3F069401CB3
:1021300014F1E801884203D3002C01D0F42077E0A9
:1021400004222900300001F007FB002803D1002DF4
:1021500001D0F4206CE01C223900300001F0FCFAC0
:10216000002801D1F42063E004223968300001F036
:10217000F3FA002804D13868002801D0F42057E091
:1021800004227968300001F0E7FA002804D1786869
:10219000002801D0F4204BE00422B968300001F09F
:1021A000DBFA002804D1B868002801D0F4203FE011
:1021B0000422F968300001F0CFFA002804D1F86851
:1021C000002801D0F42033E004223969300001F006
:1021D000C3FA002804D13869002801D0F42027E090
:1021E00004227969300001F0B7FA002804D1786937
:1021F000002801D0F4201BE00422B969300001F06E
:10220000ABFA002804D1B869002801D0F4200FE00F
:10221000B86904907869039038690290F868019071
:10222000B86800907B683A682900200002F02EFF11
:1022300005B0F0BD38B504000D00207BC00701D506
:10224000F32002E0280002F045FF32BDF0B587B070
:1022500006000C0015001F00307B800740F19880BD
:10226000E8222100300001F077FA00280CD114F1A7
:10227000E80084420CD2B069844209D3F069401C62
:1022800014F1E801884203D3002C01D0F42093E03C
:1022900004222900300001F05FFA002803D1002D4C
:1022A00001D0F42088E024223900300001F054FAF3
:1022B000002801D1F4207FE004223968300001F0C9
:1022C0004BFA002804D13868002801D0F42073E0CC
:1022D00004227968300001F03FFA002804D17868C0
:1022E000002801D0F42067E00422B968300001F032
:1022F00033FA002804D1B868002801D0F4205BE04C
:102300000422F968300001F027FA002804D1F868A7
:10231000002801D0F4204FE004223969300001F098
:102320001BFA002804D13869002801D0F42043E0CA
:1023300004227969300001F00FFA002804D178698D
:10234000002801D0F42037E00422B969300001F000
:1023500003FA002804D1B869002801D0F4202BE04A
:102360000422F969300001F0F7F9002804D1F86976
:10237000002801D0F4201FE00422396A300001F067
:10238000EBF9002804D1386A002801D0F42013E0CA
:10239000386A0690F8690590B869049078690390E6
:1023A00038690290F8680190B86800907B683A68D4
:1023B0002900200002F094FE07B0F0BDF0B587B010
:1023C00006000C0015001F00307B800740F18B8059
:1023D00004222100300001F0BFF9002803D1002CB5
:1023E00001D0F42093E004222900300001F0B4F978
:1023F000002803D1002D01D0F42088E024223900E8
:10240000300001F0A9F9002801D1F4207FE0042276
:102410003968300001F0A0F9002804D1386800289C
:1024200001D0F42073E004227968300001F094F9BF
:10243000002804D17868002801D0F42067E0042245
:10244000B968300001F088F9002804D1B868002884
:1024500001D0F4205BE00422F968300001F07CF93F
:10246000002804D1F868002801D0F4204FE00422AD
:102470003969300001F070F9002804D1386900286A
:1024800001D0F42043E004227969300001F064F9BE
:10249000002804D17869002801D0F42037E0042214
:1024A000B969300001F058F9002804D1B869002852
:1024B00001D0F4202BE00422F969300001F04CF93E
:1024C000002804D1F869002801D0F4201FE004227C
:1024D000396A300001F040F9002804D1386A002838
:1024E00001D0F42013E0386A0690F8690590B869C5
:1024F00004907869039038690290F8680190B86890
:1025000000907B683A682900200002F02AFE07B09C
:10251000F0BDF8B506000C0017001D00307B8007E9
:1025200022D5E8222100300001F016F900280CD154
:1025300014F1E80084420CD2B069844209D3F069F6
:10254000401C14F1E801884203D3002C01D0F42090
:102550000FE004222900300001F0FEF8002803D12A
:10256000002D01D0F42004E02A003900200002F000
:1025700039FEF2BDF8B506000C0017001D00307BD7
:10258000800722D5E8222100300001F0E5F800287C
:102590000CD114F1E80084420CD2B069844209D312
:1025A000F069401C14F1E801884203D3002C01D0EB
:1025B000F4200FE004222900300001F0CDF80028BB
:1025C00003D1002D01D0F42004E02A0039002000BE
:1025D00002F034FEF2BDF8B504000D0016001F0035
:1025E00002F056FE0020F2BD38B505000C00287B35
:1025F000800717D5E8222100280001F0ADF8002857
:102600000CD114F1E80084420CD2A869844209D3A9
:10261000E869401C14F1E801884203D3002C01D082
:10262000F42002E0200002F047FE32BD38B505007C
:102630000C00287B800717D5E8222100280001F034
:102640008BF800280CD114F1E80084420CD2A86960
:10265000844209D3E869401C14F1E801884203D39D
:10266000002C01D0F42002E0200002F06BFE32BD0D
:1026700038B504000D00280002F076FE32BD38B5F2
:1026800004000D00207BC00701D5F32002E02800E4
:1026900002F0B2FE32BD38B505000C00287B800781
:1026A00017D5E8222100280001F056F800280CD1A7
:1026B00014F1E80084420CD2A869844209D3E86985
:1026C000401C14F1E801884203D3002C01D0F4200F
:1026D00002E0200002F09CFE32BD2DE9F041050031
:1026E0000C00287B80071ED5DFF85C070068844259
:1026F00001D0F42032E0E8222100280001F02CF87B
:1027000000280CD114F1E80084420CD2A86984425C
:1027100009D3E869401C14F1E801884203D3002C76
:1027200001D0F4201AE02600EFF3108772B60120E2
:1027300030630120B0630020F064DFF81007016807
:10274000491C016087F31088EFF3148838F00408FF
:1027500088F31488200002F07CFE0020BDE8F081A0
:1027600038B505000C00287B800717D5E82221002A
:10277000280000F0F1FF00280CD114F1E800844299
:102780000CD2A869844209D3E869401C14F1E8011D
:10279000884203D3002C01D0F42002E0200002F094
:1027A00039FF32BDF8B506000C0017001D00307B64
:1027B000800722D5E8222100300000F0CDFF00285C
:1027C0000CD114F1E80084420CD2B069844209D3E0
:1027D000F069401C14F1E801884203D3002C01D0B9
:1027E000F4200FE004222900300000F0B5FF00289B
:1027F00003D1002D01D0F42004E02A00390020008C
:1028000002F026FFF2BD38B505000C00287B8007DA
:1028100017D5E8222100280000F09EFF00280CD1E7
:1028200014F1E80084420CD2A869844209D3E86913
:10283000401C14F1E801884203D3002C01D0F4209D
:1028400002E0200002F02AFF32BDF8B504000D00BE
:1028500016001F0002F034FFF2BD38B504000D0071
:10286000280002F037FF002032BD38B505000C000B
:10287000287B800717D534222100280000F06CFF48
:1028800000280CD114F1340084420CD2A86984428F
:1028900009D3E869401C14F13401884203D3002CA9
:1028A00001D0F42002E0200002F01EFF32BDF8B596
:1028B00005000C0016001F00287B800717D5342266
:1028C0002100280000F048FF00280CD114F134004A
:1028D00084420CD2A869844209D3E869401C14F1EF
:1028E0003401884203D3002C01D0F42004E03A00E4
:1028F0003100200002F00AFFF2BD2DE9F84384B058
:1029000006000C0015001F00307B80073DD53348C2
:102910000068012816D114F13400844212D2DFF885
:102920003005816910318C420CD38169C06908443B
:1029300014F13401884205D33421200000F0A4FFB3
:10294000002803D0002C01D0F4203FE00122290010
:10295000300000F001FF00280ED1681C854207D22C
:10296000B069854204D3F069401C691C884203D2D7
:10297000002D01D0F42029E018223900300000F0A9
:10298000EBFE002801D1F42020E03868002802D1B5
:102990005FF0000901E0DFF8BC94786903903869C2
:1029A0000290F8680190B86800907B684A46290058
:1029B000200002F0D1FE002808D1A0463968002985
:1029C00004D0C8F82C603968C8F8301005B0BDE8EC
:1029D000F0830000414D45532DD1020870190420A9
:1029E000445248541DCA020838B505000C00287B23
:1029F000800717D534222100280000F0ADFE002802
:102A00000CD114F1340084420CD2A869844209D359
:102A1000E869401C14F13401884203D3002C01D032
:102A2000F42002E0200002F015FF32BD70B5060070
:102A30000C00307B800717D534222100300000F0D5
:102A40008BFE00280CD114F1340084420CD2B06902
:102A5000844209D3F069401C14F13401884203D345
:102A6000002C01D0F4200AE0200002F005FF050050
:102A7000002D03D1200001F01BF80500280070BDD7
:102A8000FEB506000C0015001F00307B80075BD5EB
:102A900034222100300000F05FFE00280CD114F138
:102AA000340084420CD2B069844209D3F069401CDE
:102AB00014F13401884203D3002C01D0F4204DE0FE
:102AC00004222900300000F047FE002803D1002D29
:102AD00001D0F42042E010223900300000F03CFE2A
:102AE000002801D1F42039E004223968300000F0D8
:102AF00033FE002804D13868002801D0F4202DE0EE
:102B000004227968300000F027FE002804D178689C
:102B1000002801D0F42021E00422B968300000F040
:102B20001BFE002804D1B868002801D0F42015E06D
:102B30000422F968300000F00FFE002804D1F86884
:102B4000002801D0F42009E0F8680190B8680090EE
:102B50007B683A682900200002F0C0FEFEBDFEB589
:102B600006000C0015001F00307B80075BD5342267
:102B70002100300000F0F0FD00280CD114F13400E9
:102B800084420CD2B069844209D3F069401C14F12C
:102B90003401884203D3002C01D0F4204DE00422FC
:102BA0002900300000F0D8FD002803D1002D01D00D
:102BB000F42042E010223900300000F0CDFD002862
:102BC00001D1F42039E004223968300000F0C4FD5E
:102BD000002804D13868002801D0F4202DE0042218
:102BE0007968300000F0B8FD002804D1786800282A
:102BF00001D0F42021E00422B968300000F0ACFDDF
:102C0000002804D1B868002801D0F42015E004227F
:102C1000F968300000F0A0FD002804D1F868002811
:102C200001D0F42009E0F8680190B86800907B6852
:102C30003A682900200002F06DFEFEBDF8B50600DE
:102C40000C0015001F00307B800742D504222100B4
:102C5000300000F081FD002803D1002C01D0F420C9
:102C60003FE004222900300000F076FD002803D167
:102C7000002D01D0F42034E00C223900300000F0A7
:102C80006BFD002801D1F4202BE0042239683000CC
:102C900000F062FD002804D13868002801D0F4203B
:102CA0001FE004227968300000F056FD002804D1AE
:102CB0007868002801D0F42013E00422B9683000BD
:102CC00000F04AFD002804D1B868002801D0F420A3
:102CD00007E0B86800907B683A682900200002F09D
:102CE00038FEF2BD38B504000D00280002F04BFE9E
:102CF00032BDF8B504000D0016001F00207BC00790
:102D000001D5F32001E002F046FEF2BDF8B5040063
:102D10000D0016001F00207BC00701D5F32004E042
:102D20003A003100280002F038FEF2BD38B5040048
:102D30000D00280002F040FE32BD38B504000D0041
:102D4000280002F040FE32BD38B504000D00207BA3
:102D5000C00701D5F32002E0280002F03BFE32BD9F
:102D600038B504000D00207BC00701D5F32003E037
:102D7000280002F035FE002032BD38B504000D00F9
:102D8000207BC00701D5F32003E0280002F031FECC
:102D9000002032BDF8B504000D0016001F00207B96
:102DA000800708D50C223900200000F0D5FC00284F
:102DB00001D1F42007E0B86800907B683A683100E0
:102DC000280002F01FFEF2BD70B505000C001600D1
:102DD000287B80070AD504222100280000F0BCFCD3
:102DE000002803D1002C01D0F42004E02A00310097
:102DF000200002F021FE70BD2DE9F04104000D001D
:102E0000207B80071BD5DFF8C8080068012816D191
:102E1000B5F1100006000E488169C2691144884668
:102E20008069864201D3464501D3F4200AE0F06868
:102E3000801910300700474501D3F42002E0280034
:102E400000F036FEBDE8F0810819042024190420A2
:102E500094150420A9CC0208F8B506000F00140050
:102E60001D00307B800720D501222100300000F0BA
:102E700073FC00280ED1601C844207D2B0698442E2
:102E800004D3F069401C611C884203D2002C01D09D
:102E9000F4200FE004222900300000F05DFC00283F
:102EA00003D1002D01D0F42004E02A0021003800D5
:102EB00002F01CFEF2BDF8B505000E0014001F0064
:102EC000287B80072AD501222100280000F044FC3D
:102ED00000280ED1601C844207D2A869844204D322
:102EE000E869401C611C884203D2002C01D0F42008
:102EF0001AE008223900280000F02EFC002801D139
:102F0000F42011E004227968280000F025FC002854
:102F100004D17868002801D0F42005E07B683A6885
:102F20002100300002F0EEFDF2BD2DE9F84305006E
:102F30000E00170098465FF01D09DFF8980700683B
:102F4000D0F89040002C01D1F220BEE3012D00F01A
:102F5000F180C0F09D83032D00F0FC80C0F0F28072
:102F6000052D00F00581C0F0FB80072D00F01081D9
:102F7000C0F00681092D00F01781C0F00F810B2DE4
:102F800000F02281C0F018810D2D00F02B81C0F0DF
:102F900021810F2D00F03681C0F02C81112D00F021
:102FA0003D81C0F03581132D00F04681C0F03E8197
:102FB000152D00F05181C0F04781172D00F05C8184
:102FC000C0F05281192D00F05C82C0F05D811B2D94
:102FD00000F06981C0F05F811D2D00F07181C0F0AB
:102FE00068811F2D00F07C81C0F07281212D00F0DE
:102FF0008581C0F07D81232D00F08E81C0F0848119
:10300000252D00F09581C0F08D81272D00F0A08145
:10301000C0F09681292D00F0AB81C0F0A1812B2D4D
:1030200000F0B481C0F0AA812D2D00F0BE81C0F067
:10303000B5812F2D00F0C881C0F0BE81312D00F088
:10304000D081C0F0C781332D00F0DB81C0F0D18189
:10305000352D00F0E481C0F0DC81372D00F0EC81EB
:10306000C0F0E381392D00F0F581C0F0ED813B2DFA
:1030700000F0FF81C0F0F5813D2D00F01082C0F01E
:1030800006823F2D00F01B82C0F01182412D00F01E
:103090002682C0F01C82432D00F02D82C0F02582D4
:1030A000452D00F03482C0F02C82472D00F0418283
:1030B000C0F03982492D00F04A82C0F042824B2D87
:1030C00000F05382C0F04B824D2D00F05C82C0F0C6
:1030D00052824F2D00F06582C0F05D82512D00F0CC
:1030E0006E82C0F06482532D00F08782C0F06F8240
:1030F000552D00F09082C0F08882572D00F091820B
:10310000C0F07382592D00F09882C0F090825B2D40
:1031100000F09982C0F063825D2D00F0A982C0F0BA
:10312000FC815F2D00F09782C0F0AA82602D00F034
:103130009982ADE243463A0031002000FDF77AF86B
:103140008146C1E243463A0031002000FDF7A3F872
:103150008146B9E231002000FDF7FBF88146B3E279
:1031600043463A0031002000FDF71DF98146ABE2ED
:1031700043463A0031002000FDF792F98146A3E270
:1031800043463A0031002000FDF7EBF981469BE20F
:1031900031002000FDF72BFA814695E23100200036
:1031A000FDF747FA81468FE243463A00310020009E
:1031B000FDF758FA814687E243463A003100200085
:1031C000FDF78BFA81467FE231002000FDF7E1FA3E
:1031D000814679E243463A0031002000FDF703FBC7
:1031E000814671E243463A0031002000FDF778FB4A
:1031F000814669E243463A0031002000FDF7FDFBBD
:10320000814661E231002000FDF767FC81465BE208
:1032100031002000FDF783FC814655E243463A0029
:1032200031002000FDF795FC81464DE23100200081
:10323000FDF7D6FC814647E243463A0031002000C4
:10324000FDF7F8FC81463FE243463A00310020009A
:10325000FDF72EFD814637E243463A00310020005B
:10326000FDF795FD81462FE243463A0031002000EC
:10327000FDF7EEFD814627E243463A00310020008B
:10328000FDF72CFE81461FE23A0031002000FDF7D9
:103290004BFE814618E243463A0031002000FDF71C
:1032A0007CFE814610E231002000FDF7C4FE81461D
:1032B0000AE23A0031002000FDF7E7FE814603E212
:1032C00043463A0031002000FDF703FF8146FBE151
:1032D00043463A0031002000FDF778FF8146F3E1D4
:1032E00043463A0031002000FDF7EDFF8146EBE157
:1032F00031002000FEF749F88146E5E13100200069
:10330000FEF765F88146DFE143463A0031002000D0
:10331000FEF77FF88146D7E131002000FEF7D7F8AD
:103320008146D1E131002000FEF7FBF88146CBE178
:1033300043463A0031002000FEF715F98146C3E10B
:1033400043463A0031002000FEF751F98146BBE1C7
:1033500043463A0031002000FEF7C6F98146B3E14A
:1033600043463A0031002000FEF73BFA8146ABE1CC
:1033700031002000FEF797FA8146A5E143463A0066
:1033800031002000FEF7B1FA81469DE143463A0044
:1033900031002000FEF7DFFA814695E13A00310066
:1033A0002000FEF71FFB81468EE13A00310020002D
:1033B000FEF758FB814687E143463A003100200082
:1033C000FEF774FB81467FE131002000FEF7BEFB73
:1033D000814679E13A0031002000FEF7E1FB8146A9
:1033E00072E143463A0031002000FEF7FDFB8146C2
:1033F0006AE143463A0031002000FEF764FC814652
:1034000062E143463A0031002000FEF7BDFC8146F0
:103410005AE131002000FEF7FDFC814654E1310005
:103420002000FEF719FD81464EE13A0031002000F0
:10343000FEF734FD814647E143463A003100200063
:10344000FEF765FD81463FE131002000FEF7D9FD22
:10345000814639E13A0031002000FEF7FCFD81464B
:1034600032E143463A0031002000FEF73FFE81463C
:103470002AE143463A0031002000FEF73FFE814634
:1034800022E131002000FEF7D5FE81461CE14346D3
:103490003A0031002000FEF7D9FE814614E1434690
:1034A0003A0031002000FEF789FF81460CE14346D7
:1034B0003A0031002000FFF72CF8814604E1434632
:1034C0003A0031002000FFF755F88146FCE0434602
:1034D0003A0031002000FFF77EF88146F4E0310029
:1034E0002000FFF781F88146EEE031002000FFF771
:1034F0009DF88146E8E031002000FFF7B9F88146E9
:10350000E2E031002000FFF7BAF88146DCE031004C
:103510002000FFF7C0F88146D6E031002000FFF719
:10352000DCF88146D0E031002000FFF719F9814630
:10353000CAE043463A0031002000FFF733F98146E4
:10354000C2E031002000FFF75EF98146BCE043464F
:103550003A0031002000FFF778F98146B4E03100ED
:103560002000FFF77AF98146AEE031002000FFF736
:103570007CF98146A8E043463A0031002000FFF77D
:1035800096F98146A0E043463A0031002000FFF75B
:10359000B4F9814698E031002000FFF725FA814612
:1035A00092E031002000FFF741FA81468CE043466B
:1035B0003A0031002000FFF763FA814684E0434679
:1035C0003A0031002000FFF7CAFA81467CE043460A
:1035D0003A0031002000FFF731FB814674E03100F2
:1035E0002000FFF77FFB81466EE043463A00310042
:1035F0002000FFF77EFB814666E043463A0031003B
:103600002000FFF783FB81465EE031002000FFF7DA
:103610008DFB814658E031002000FFF78EFB81468C
:1036200052E031002000FFF78FFB81464CE0310073
:103630002000FFF795FB814646E031002000FFF7B0
:103640009CFB814640E043463A0031002000FFF7F2
:10365000A1FB814638E03A0031002000FFF7B4FBBF
:10366000814631E031002000FFF7C6FB81462BE0A8
:1036700043463A0031002000FFF7EEFB814623E08D
:1036800043463A0031002000FFF715FC81461BE05D
:10369000B5F5FA7F0BD3B5F57A7F08D2CDF8008067
:1036A0003B0032002900200002F094FB8146B5F572
:1036B000803F09D343463A00310005F17F4010F5C1
:1036C0007F0002F0DCFB81464846BDE8F283000043
:1036D000701904200819042010B41E494A09520127
:1036E00052F01E0242664909490151F0010181660A
:1036F00081694909490151F01E01C1668269016D64
:10370000896B8A18521E5209520152F00102026757
:10371000C16A4909490151F01B014167016DC96B3B
:10372000026D926A036D5B6BC91DC908C900D21D89
:10373000D208D200DB1DDB08DB0051185918C46A1F
:103740000C19641E6409640154F00104846710BC00
:1037500070470000E19B0108F0B403005018884254
:1037600001D2002023E0D86A814206D3186B401CA6
:103770005618B04201D3012019E0D3F8A4700026F6
:10378000BE4213D203EB8600D0F8A800040003EB7E
:103790008600D0F8BC0000190500A14204D35018DF
:1037A000854201D3012002E0761CE9E70020F0BC4D
:1037B00070470268531C0360117070472DE9F04197
:1037C00004000D0016000027002C02D10220070083
:1037D0001FE020681449884202D00220070018E048
:1037E000002D02D10320070013E0002E11D00F4856
:1037F0000068EFF305810843002802D00420070089
:1038000007E00B48006880460A48804501D1042043
:103810000700002F05D132002900200002F034FB00
:1038200007003800BDE8F081434F4C42681100208A
:1038300008190420300D042010B40200D06A81421F
:1038400004D3106B814201D2012015E00C480068BE
:10385000002810D00B488469A1420CD38469C06948
:103860002044814207D208001038030018689042B3
:1038700001D1012000E0002010BC704700000000D2
:1038800070190420941504200200B2F11003D868C6
:10389000884201D1002000E0F420704770B403009A
:1038A000002A01D100201AE01878040010780500E1
:1038B00020002E00C0B2F6B2B04208D12000C0B243
:1038C000002801D101200AE0002904D101E00020F4
:1038D00005E0002003E05B1C521C491EE4E770BCBD
:1038E000704778B585B004000D001600A06B0190FC
:1038F0005FF0FF310198091A042901D2F82025E070
:103900000198001D01900198401E800880000190E0
:1039100004200290012004900120039003A800904D
:1039200004AB02AA01A9200002F020FB5FF0FF31E6
:103930000198091A0298814201D2F82006E0019903
:1039400002984118316002982860002006B070BDCE
:103950002DE9F74F82B004001D000E9F0026002CB9
:1039600002D10220060057E00F98302802D0022032
:10397000060051E0EFF3108B72B62E480168491C27
:1039800001608BF310882C4909688846002189461C
:103990002A490968894506D2444504D0D8F82880C8
:1039A00019F10109F4E7EFF3108A72B60168491EB4
:1039B00001608AF3108802F0FAFA444502D102202D
:1039C000060029E0002D02D10320060024E0380083
:1039D00080088000049989088900091D884202D264
:1039E0000520060018E01648006801900198154966
:1039F000884201D113200600134A1068EFF30581B5
:103A00000843002808D01168EFF305800143B1F1A5
:103A1000F03F01D213200600002E07D100972B00A3
:103A2000049A0399200002F0DBFA0600300005B08A
:103A3000BDE8F08F24190420F0180420F4180420A5
:103A400008190420300D04206811002070B504000E
:103A50000025002C02D1022005001EE0206810493C
:103A6000884202D00220050017E00E480068EFF3FC
:103A700005810843002802D0132005000DE00A4804
:103A8000006806000948864201D113200500002D78
:103A900003D1200002F018FB0500280070BD00BF14
:103AA000434F4C426811002008190420300D0420B7
:103AB0002DE9F0470500234F5FF0FF31380000F09B
:103AC00083FC21480068002834D020480068D0F8E2
:103AD000900006002800814610380400002C06D013
:103AE0002068B04203D1D6F8A004002802D15FF0CC
:103AF000030A21E0D6F8A004401EC6F8A004D6F8B8
:103B0000A004002803D10020C6F89C040DE06068E2
:103B10008046A0688146C8F80890C9F80480D6F8A5
:103B20009C04A04201D1C6F89C84200000F012FA47
:103B3000824601E05FF01D0A380000F001FD5046AA
:103B4000BDE8F087C8150420701904200819042066
:103B5000FEB504000D0016001F00002C01D102204C
:103B600011E020680849884201D002200BE00A9841
:103B7000029009980190089800903B0032002900BB
:103B8000200002F003FBFEBD434F4C4230B4050061
:103B9000029C002D01D0FF2010E0002901D0FF2061
:103BA0000CE0002A01D0FF2008E0002B01D0FF200C
:103BB00004E0002C01D0FF2000E0FF2030BC704763
:103BC00010B40400002C01D0FF200CE0002901D02B
:103BD000FF2008E0002A01D0FF2004E0002B01D0E4
:103BE000FF2000E0FF2010BC70472E0010B504003D
:103BF000002C01D1022008E020680449884201D04D
:103C0000022002E0200002F0E7FA10BD434F4C42D0
:103C1000F8B50400002C01D1032012E02000001FA1
:103C2000060031680F003D00002D01D1032008E09F
:103C300028680449884201D0032002E0200002F0F5
:103C40003BFBF2BD434F4C422DE9F84305000E000B
:103C5000170098460024002D02D10220040022E023
:103C600028682549884202D0022004001BE0002E6B
:103C700002D10320040016E0002F02D10520040029
:103C800011E0E869B84202D2052004000BE0B8F167
:103C9000000F08D019480068EFF305810843002899
:103CA00001D004200400002C07D11548006881468B
:103CB0001448814501D113200400002C0FD10F4A74
:103CC0001068EFF305810843002808D01168EFF36E
:103CD00005800143B1F1F03F01D213200400002C14
:103CE00006D143463A003100280002F033FB0400BD
:103CF0002000BDE8F28300BF4554594268110020FE
:103D000008190420300D04202DE9F34F81B0040080
:103D100015001F000026002C02D10220060050E0F2
:103D20000C98342802D0022006004AE0EFF3108BF2
:103D300072B62A480168491C01608BF31088284933
:103D4000096888460021894626490968894506D2BE
:103D5000444504D0D8F82C8019F10109F4E7EFF3B9
:103D6000108A72B60168491E01608AF3108802F059
:103D70001EF9444502D10220060022E0002D02D1A6
:103D8000032006001DE0642F02D20520060018E083
:103D900015480068009000981449884201D113200A
:103DA0000600134A1068EFF305810843002808D085
:103DB0001168EFF305800143B1F1F03F01D2132008
:103DC0000600002E06D13B002A000299200002F0D6
:103DD00049FB06003000BDE8FE8F00BF2419042017
:103DE000F8180420FC18042008190420300D0420C1
:103DF0006811002070B504000025002C02D10220BB
:103E000005001EE020681049884202D0022005000B
:103E100017E00E480068EFF305810843002802D040
:103E2000132005000DE00A48006806000948864294
:103E300001D113200500002D03D1200002F07CFBEE
:103E40000500280070BD00BF45545942681100208C
:103E500008190420300D0420FEB504000D001600E2
:103E60001F00002C01D1022011E02068084988427F
:103E700001D002200BE00A9802900998019008985E
:103E800000903B0032002900200002F0B7FBFEBD8D
:103E900045545942F0B48446049F059E069D079CF4
:103EA000BCF1000F01D0FF201CE0002901D0FF2051
:103EB00018E0002A01D0FF2014E0002B01D0FF20E1
:103EC00010E0002F01D0FF200CE0002E01D0FF20D9
:103ED00008E0002D01D0FF2004E0002C01D0FF20DD
:103EE00000E0FF20F0BC7047F0B40700049E059D81
:103EF000069C002F01D0FF2018E0002901D0FF20F0
:103F000014E0002A01D0FF2010E0002B01D0FF2098
:103F10000CE0002E01D0FF2008E0002D01D0FF2092
:103F200004E0002C01D0FF2000E0FF20F0BC70472F
:103F300010B50400002C01D1022008E020680449DB
:103F4000884201D0022002E0200002F07DFB10BD7B
:103F50004554594270B504000025002C02D10320BD
:103F6000050017E00F48006806000F48864201D19F
:103F7000132005000D4A1068EFF30581084300285F
:103F800008D01168EFF305800143B1F1F03F01D291
:103F900013200500002D03D1200002F0C5FB050011
:103FA000280070BD08190420300D0420681100207D
:103FB0002DE9F84F04000E0017000025002C02D157
:103FC0000620050045E0302F02D00620050040E025
:103FD000EFF3108B72B624480168491C01608BF323
:103FE00010882249096888460021894620490968C5
:103FF000894506D2444504D0D8F8188019F1010942
:10400000F4E7EFF3108A72B60168491E01608AF383
:10401000108801F0CCFF444502D10620050018E0CD
:1040200014480068009000981349884201D1132079
:104030000500124A1068EFF305810843002808D0F4
:104040001168EFF305800143B1F1F03F01D2132075
:104050000500002D04D13100200002F029FC0500EC
:104060002800BDE8F28F00BF24190420E0180420C6
:10407000E418042008190420300D042068110020E1
:1040800070B504000025002C02D1062005001EE0BA
:1040900020681049884202D00620050017E00E482B
:1040A0000068EFF305810843002802D013200500C3
:1040B0000DE00A48006806000948864201D1132035
:1040C0000500002D03D1200002F026FC0500280089
:1040D00070BD00BF4E4456446811002008190420EA
:1040E000300D04202DE9FC470500884691461E004E
:1040F0000A9F0024002D02D1062004001FE028683A
:104100001949884202D00620040018E0002E02D18E
:104110000320040013E0002F11D014480068EFF3CF
:1041200005810843002802D00420040007E010485D
:10413000006882460F48824501D104200400002C0B
:1041400004D1B9F1040F01D308200400002C07D1D9
:10415000009733004A464146280002F03FFC040025
:104160002000BDE8F68700BF4E4456446811002089
:1041700008190420300D0420FEB504000D001600BF
:104180001F00002C01D106200FE02068074988425B
:1041900001D0062009E009980190089800903B00A2
:1041A00032002900200002F0BFFCFEBD4E44564400
:1041B00030B40500029C002D01D0FF2010E0002942
:1041C00001D0FF200CE0002A01D0FF2008E0002BE6
:1041D00001D0FF2004E0002C01D0FF2000E0FF20F0
:1041E00030BC704710B40400002C01D0FF200CE05C
:1041F000002901D0FF2008E0002A01D0FF2004E0C0
:10420000002B01D0FF2000E0FF2010BC70474300CE
:10421000F8B504000F0015000026002C02D106207E
:1042200006000CE020680B49884202D006200600F8
:1042300005E0022D03D0002D01D008200600002E3D
:1042400005D12A003900200002F094FC060030005D
:10425000F2BD00BF4E44564438B504000D00002C9A
:1042600001D1062009E020680449884201D00620D7
:1042700003E02900200002F0CDFD32BD4E4456443B
:104280002DE9F34F81B0050016001F000024002D1A
:1042900002D11C20040032E0342F02D01C20040084
:1042A0002DE0EFF3108B72B628480168491C0160BD
:1042B0008BF31088264909688846002189462549DC
:1042C0000968894506D2454504D0D8F8208019F1FF
:1042D0000109F4E7EFF3108A72B60168491E016024
:1042E0008AF3108801F063FE454502D11C200400CA
:1042F00005E0012E03D0002E01D01F200400002C69
:1043000018D115480068009000981449884201D1DE
:1043100013200400124A1068EFF3058108430028B7
:1043200008D01168EFF305800143B1F1F03F01D2ED
:1043300013200400002C05D132000299280002F05D
:1043400073FD04002000BDE8FE8F00BF2419042087
:10435000E8180420EC18042008190420300D04206B
:104360006811002070B504000025002C02D11C202B
:1043700005001EE020681049884202D01C2005007C
:1043800017E00E480068EFF305810843002802D0CB
:10439000132005000DE00A4800680600094886421F
:1043A00001D113200500002D03D1200002F07CFD77
:1043B0000500280070BD00BF4554554D6811002010
:1043C00008190420300D0420F8B505000E00002463
:1043D000002D02D11C2004001AE028681A498842E6
:1043E00002D01C20040013E0002E11D017480068F2
:1043F000EFF305810843002802D00420040007E001
:104400001348006807001348874201D104200400C4
:10441000002C0FD10D4A1068EFF3058108430028E6
:1044200008D01168EFF305800143B1F1F03F01D2EC
:1044300013200400002C04D13100280002F0A6FD56
:1044400004002000F2BD00BF4554554D6811002006
:1044500008190420300D0420FEB504000D001600DC
:104460001F00002C01D11C2011E02068084988425F
:1044700001D01C200BE00A9802900998019008983E
:1044800000903B0032002900200002F01DFEFEBD1E
:104490004554554DF0B40700049E059D069C002F21
:1044A00001D0FF2018E0002901D0FF2014E0002AED
:1044B00001D0FF2010E0002B01D0FF200CE0002EE7
:1044C00001D0FF2008E0002D01D0FF2004E0002CE7
:1044D00001D0FF2000E0FF20F0BC704770B4060060
:1044E000039D049C002E01D0FF2014E0002901D080
:1044F000FF2010E0002A01D0FF200CE0002B01D0AB
:10450000FF2008E0002D01D0FF2004E0002C01D0A6
:10451000FF2000E0FF2070BC7047704710B504001A
:10452000002C01D11C2008E020680449884201D0F9
:104530001C2002E0200002F0EDFD10BD4554554D59
:1045400038B504000025002C02D11C20050016E01F
:1045500020680F49884202D01C2005000FE00D4A58
:104560001068EFF305810843002808D01168EFF3C5
:1045700005800143B1F1F03F01D213200500002D69
:1045800003D1200002F036FE0500280032BD00BF36
:104590004554554D681100202DE9FB4F82B00400B1
:1045A00015000E9F0026002C02D1092006005DE0B8
:1045B0000F98442802D00920060057E0EFF3108B33
:1045C00072B631480168491C01608BF310882F498D
:1045D00009688846002189462D490968894506D21F
:1045E000444504D0D8F8308019F10109F4E7EFF31D
:1045F000108A72B60168491E01608AF3108801F0C2
:10460000D6FC444502D1092006002FE0049800287A
:1046100002D10320060029E0002D02D1052006006A
:1046200024E0112D02D3052006001FE03800800889
:10463000A84202D20520060018E016480068019042
:1046400001981549884201D113200600134A1068C9
:10465000EFF305810843002808D01168EFF30580C7
:104660000143B1F1F03F01D213200600002E07D123
:104670000097049B2A000399200002F009FF06001E
:10468000300005B0BDE8F08F24190420D8180420AC
:10469000DC18042008190420300D042068110020C3
:1046A00070B504000025002C02D10920050018E097
:1046B00020681049884202D00920050011E00E4808
:1046C0000068EFF305810843002802D0132005009D
:1046D00007E00A48006806000948864201D1132015
:1046E0000500002D03D1200002F022FF0500280064
:1046F00070BD00BF554555516811002008190420B0
:10470000300D042010B50400002C01D1092008E070
:1047100020680449884201D0092002E0200002F00C
:1047200069FF10BD554555512DE9F04104000D00BC
:1047300016000027002C02D1092007001FE0206886
:104740001449884202D00920070018E0002D02D148
:104750000320070013E0002E11D00F480068EFF38C
:1047600005810843002802D00420070007E00B4819
:10477000006880460A48804501D104200700002FC8
:1047800005D132002900200002F086FF0700380022
:10479000BDE8F081554555516811002008190420E5
:1047A000300D0420FEB504000D0016001F00002C83
:1047B00001D1092011E020680849884201D0092070
:1047C0000BE00A98029009980190089800903B002D
:1047D00032002900200003F053F8FEBD5545555125
:1047E000F0B40700049E059D069C002F01D0FF2019
:1047F00018E0002901D0FF2014E0002A01D0FF209A
:1048000010E0002B01D0FF200CE0002E01D0FF2093
:1048100008E0002D01D0FF2004E0002C01D0FF2093
:1048200000E0FF20F0BC704770B40600039D049CBC
:10483000002E01D0FF2014E0002901D0FF2010E05D
:10484000002A01D0FF200CE0002B01D0FF2008E05F
:10485000002D01D0FF2004E0002C01D0FF2000E05B
:10486000FF2070BC7047704710B50400002C01D1C8
:10487000092008E020680449884201D0092002E0AC
:10488000200003F023F810BD554555512DE9F041A6
:1048900004000D0016000027002C02D1092007009B
:1048A0001FE020681449884202D00920070018E060
:1048B000002D02D10320070013E0002E11D00F4875
:1048C0000068EFF305810843002802D004200700A8
:1048D00007E00B48006880460A48804501D1042063
:1048E0000700002F05D132002900200003F05EF8F8
:1048F00007003800BDE8F08155455551681100208A
:1049000008190420300D04202DE9F04104000D00A9
:1049100016000027002C02D1092007001FE02068A4
:104920001449884202D00920070018E0002D02D166
:104930000320070013E0002E11D00F480068EFF3AA
:1049400005810843002802D00420070007E00B4837
:10495000006880460A48804501D104200700002FE6
:1049600005D132002900200003F04CF9070038007F
:10497000BDE8F08155455551681100200819042003
:10498000300D042038B504000D00002C01D10920A1
:1049900009E020680449884201D0092003E0290089
:1049A000200003F013FA32BD5545555138B50500C6
:1049B0000C00002D01D10C200DE02868064988422A
:1049C00001D00C2007E0002C01D1222003E02100BF
:1049D000280003F005FA32BD414D45532DE9F34F50
:1049E00081B0050016001F000024002D02D10C200C
:1049F000040035E0282F02D00C20040030E0EFF353
:104A0000108B72B625480168491C01608BF3108831
:104A10002349096888460021894622490968894551
:104A200006D2454504D0D8F8148019F10109F4E7FD
:104A3000EFF3108A72B60168491E01608AF310888C
:104A400001F0B5FA454502D10C20040008E01648F3
:104A50000068009000981549884201D11320040095
:104A6000002C0FD1124A1068EFF30581084300288B
:104A700008D01168EFF305800143B1F1F03F01D296
:104A800013200400002C05D132000299280003F005
:104A9000FDF904002000BDE8FE8F00BF24190420AA
:104AA000D0180420D418042008190420300D042044
:104AB0006811002070B504000025002C02D10C20E4
:104AC000050018E020681049884202D00C2005003B
:104AD00011E00E480068EFF305810843002802D07A
:104AE0001320050007E00A480068060009488642CE
:104AF00001D113200500002D03D1200003F0FEF9A1
:104B00000500280070BD00BF414D455368110020CD
:104B100008190420300D0420F8B504000D0000260B
:104B2000002C02D10C2006001AE0206811498842AE
:104B300002D00C20060013E0002D11D00E480068B2
:104B4000EFF305810843002802D00420060007E0A7
:104B50000A48006807000A48874201D1042006007D
:104B6000002E04D12900200003F02AFA06003000AC
:104B7000F2BD00BF414D45536811002008190420C3
:104B8000300D0420FEB504000D0016001F00002C9F
:104B900001D10C200FE020680749884201D00C2089
:104BA00009E009980190089800903B003200290024
:104BB000200003F05FFAFEBD414D455330B40500BF
:104BC000029C002D01D0FF2010E0002901D0FF2021
:104BD0000CE0002A01D0FF2008E0002B01D0FF20CC
:104BE00004E0002C01D0FF2000E0FF2030BC704723
:104BF00010B40400002C01D0FF200CE0002901D0EB
:104C0000FF2008E0002A01D0FF2004E0002B01D0A3
:104C1000FF2000E0FF2010BC7047704710B5040073
:104C2000002C01D10C2008E020680449884201D002
:104C30000C2002E0200003F03DFA10BD414D455329
:104C400010B50400002C01D10C2008E020680449B4
:104C5000884201D00C2002E0200003F09BFA10BD36
:104C6000414D455338B504000D00002C01D10C20F6
:104C700009E020680449884201D00C2003E02900A3
:104C8000200003F0C9FA32BD414D45532DE9FF4FD5
:104C900089B00400179DDDF860B01E9E00200590CD
:104CA000002C01D10E209BE11D98E82801D00E2098
:104CB00096E1EFF31080009072B6DFF82C93D9F8EC
:104CC0000000401CC9F80000009880F31088C74815
:104CD000076805EB0B00401E08905FF00008DFF846
:104CE00010A3DAF80000804510D2BC420ED038691B
:104CF000A84206D30898F968884202D3002005002C
:104D000004E0D7F8887018F10108E8E7EFF31080A5
:104D1000009072B6D9F80000401EC9F80000009853
:104D200080F3108801F043F9BC4201D10E2057E115
:104D3000002D01D1032053E10C98002801D103205C
:104D40004EE1BBF1C80F01D2052049E11998202896
:104D500001D30F2044E119981A99884201D21820F2
:104D60003EE11C98022801D3102039E1A1480168D6
:104D7000A148814201D1132032E1A0480068EFF33D
:104D800005810843002809D09C480168EFF305809D
:104D90000143B1F1F03F01D2132021E1CDF81CB065
:104DA000EF2006900395069A0799039803F03EFAC0
:104DB0000398BBF13C0BCDF860B0E82004900020D4
:104DC0000390A346039A0499584603F02FFA307BC8
:104DD000800725D532004FF4407114F1A40000F093
:104DE0002BFE04900498002801D00498F8E04FF4BA
:104DF000407BCDF81CB0EF200690D4F8A4000390BF
:104E0000069A0799039803F011FA0398D4F8A400BE
:104E100010F54070C008C000C4F8A800C4F8ACB0D9
:104E2000C4F8B4501898C4F8BC000A98A0620C9852
:104E300060641698A064E560189860611998E06253
:104E40001998C4F8C8001B98A0611B98E061202045
:104E5000C4F8D000280018990844401E0390039815
:104E600020612069C4F8B8001A98E0631A98C4F861
:104E7000CC000320206362486065A465206910F1BE
:104E8000090B5FEA9B0B5FEA8B0BCBF80040CBF87A
:104E90000460706BCBF80800B069CBF80C00606C54
:104EA000CBF81000A06CCBF8140016F52870CBF8E6
:104EB000240016F5DC70CBF82000307B10F00100E8
:104EC000C4F89800307B10F00100C4F89C00D4F8BE
:104ED0009C00002803D04B48CBF82C0002E04A4845
:104EE000CBF82C00D4F8E000CBF81800606CB16D62
:104EF000884203D10120CBF81C0002E00020CBF84F
:104F00001C00C4F89060C4F894B0C4F808B00B99C1
:104F1000200003F0BFF9EFF31080009072B63B4819
:104F20002060DAF80000002806D130480460C4F898
:104F30008840C4F88C400FE02C4800680700D7F880
:104F40008C000290C7F88C400298C0F88840029804
:104F5000C4F88C00C4F88870DAF80000401CCAF865
:104F60000000D9F80000401CC9F800001C98012876
:104F700024D122480168EFF305800143B1F1F03FED
:104F80000DD32348006801900198002809D00198AA
:104F9000C06B05900198C06A0199C86301E00020C8
:104FA0000190009880F31088200003F0A8F9019880
:104FB000002814D005980199C86310E0009880F388
:104FC0001088EFF31080009072B6D9F80000401EF0
:104FD000C9F80000009880F3108800F0E8FF002076
:104FE0000DB0BDE8F08F00BF241904201019042073
:104FF0001419042008190420300D04206811002021
:1050000085D50208E19B01082B2F00084452485423
:105010000C19042010B504000B480068EFF305815B
:105020000843002801D013200CE0002C01D10E20F1
:1050300008E020680549884201D00E2002E02000E7
:1050400003F0F8F910BD00BF681100204452485425
:1050500038B504000D00002C01D10E2009E02068B5
:105060000449884201D00E2003E02900200003F00B
:1050700017FA32BD44524854EFF3108172B6024819
:10508000006881F31088704708190420F0B585B0D6
:1050900004000D0016001F00002C01D10E2015E0A9
:1050A00020680B49884201D00E200FE00E98049032
:1050B0000D9803900C9802900B9801900A9800901C
:1050C0003B0032002900200003F0F4F905B0F0BDE8
:1050D00044524854EFF3108180F31088084670471B
:1050E0002DE9F0430400DDF81C90DDF82080DDF8A8
:1050F00024E0DDF828C00B9F0C9E0D9D002C01D0F4
:10510000FF202CE0002901D0FF2028E0002A01D058
:10511000FF2024E0002B01D0FF2020E0B9F1000F98
:1051200001D0FF201BE0B8F1000F01D0FF2016E0F6
:10513000BEF1000F01D0FF2011E0BCF1000F01D043
:10514000FF200CE0002F01D0FF2008E0002E01D04E
:10515000FF2004E0002D01D0FF2000E0FF20BDE88B
:10516000F0832DE9F0430400DDF81C90DDF8208089
:10517000DDF824E0DDF828C00B9F0C9E0D9D002C6F
:1051800001D0FF202CE0002901D0FF2028E0002AD8
:1051900001D0FF2024E0002B01D0FF2020E0B9F156
:1051A000000F01D0FF201BE0B8F1000F01D0FF205D
:1051B00016E0BEF1000F01D0FF2011E0BCF1000F9E
:1051C00001D0FF200CE0002F01D0FF2008E0002ECE
:1051D00001D0FF2004E0002D01D0FF2000E0FF20DF
:1051E000BDE8F08370B504000E001500002C01D15D
:1051F0000E201DE020680F49884201D00E2017E0E4
:10520000002D01D1032013E00B480068EFF3058166
:105210000843002801D013200AE0D4F8C800B042A7
:1052200001D2182004E02A003100200003F07EF9AA
:1052300070BD00BF445248546811002070B504008E
:105240000E001500002C01D10E201BE020680E4935
:10525000884201D00E2015E0002D01D1032011E07D
:10526000202E01D30F200DE008480068EFF30581E0
:105270000843002801D0132004E02A003100200058
:1052800003F0B8F970BD00BF4452485468110020C3
:1052900010B507480468002C08D006480068EFF3F2
:1052A00005810843002801D103F02FFA10BD00BF8B
:1052B00008190420681100202DE9F84F050000248A
:1052C000EFF3108772B61E48D0F80080A84504D1CD
:1052D00087F310882020040007E0286B012804D001
:1052E000286B022801D020200400002C22D120208D
:1052F0002863D5F89000009087F31088D5F81490B3
:105300005FF0EF0AD5F80CB052464946584602F015
:105310008DFF28690930800880000600AE60009883
:10532000416D280002F0B6FFEFF31080070072B65F
:105330000320286387F310882000BDE8F28F00BFA8
:105340000819042010B50400002C01D10E2008E03B
:1053500020680449884201D00E2002E0200003F0BA
:1053600007FA10BD4452485470B50400EFF310869C
:1053700072B61D480568002D03D186F310881320EE
:1053800031E01A480068EFF305810843002803D094
:1053900086F31088132026E01548854203D186F352
:1053A000108813201FE0002C03D186F31088002002
:1053B00019E010490868002803D086F310881320EC
:1053C00011E0042028630120A8630020C5F88400B0
:1053D000EC640868401C086086F31088280000F020
:1053E00038F8D5F8840070BD081904206811002031
:1053F000300D0420241904200100EFF3108272B64E
:105400000248016082F310880020704730190420A0
:1054100010B50400002C01D10E2008E020680449DA
:10542000884201D00E2002E0200003F0DBF910BD1D
:10543000445248545FF080506D4A1060EFF305808D
:10544000002805D1EFF31080010062B681F31088C7
:1054500070472DE9F84F84B006006648D0F80090F8
:10546000EFF3108A72B64E450FD1F06C019001989F
:10547000002807D0019810F1010F03D016F14C005D
:1054800003F0FAF9F0695C4908605C490868401E5D
:105490000860B06B012840F09B800020B063F06A88
:1054A0000700306A8046B04519D0706A02900298B1
:1054B000C8F824000298C0F82080514850F82720EE
:1054C000B24240D140F827804E4A106800283AD0B6
:1054D0000120B84005001068A843106033E00020A8
:1054E000474A42F827005FF0010C1CFA07FB464AC6
:1054F000106830EA0B001060424B1868002806D094
:105500001CFA07FCE346186830EA0B00186000201C
:10551000009010680400002C0DD120203B4A106040
:1055200000203B4A10608AF310880D68002D01D1DD
:10553000FFF780FF59E094FAA4F0B0FA80F50098E4
:105540002818324A1060324A1068864240D12F4BE8
:10555000DFF8ACE018685EF820001060DFF8A4B057
:10556000DBF80000002829D00868401C08608AF396
:105570001088EFF31080824672B60868401E0860FB
:1055800000200090DBF80000040094FAA4F0B0FAC8
:1055900080F0050000982818070018685EF827308A
:1055A000DB6B98420AD35EF8270010600120B840F8
:1055B0000500DBF80000A843CBF800008AF3108850
:1055C000D1F800B0BBF1000F01D1FFF733FF0CE0C1
:1055D0008AF310880E480068814506D00868039059
:1055E0000398002801D1FFF725FF05B0BDE8F08F33
:1055F00004ED00E008190420641904202419042093
:10560000BC1004201C19042018190420201904209F
:105610000C19042010B50400002C01D10E2011E05B
:1056200020680949884201D00E200BE00748006835
:10563000EFF305810843002801D0132002E0200089
:1056400003F056F910BD00BF4452485468110020C1
:1056500070B504000E001500002C01D10E2017E0DB
:1056600020680C49884201D00E2011E0002D01D1A4
:1056700003200DE008480068EFF305810843002887
:1056800001D0132004E02A003100200003F000FACA
:1056900070BD00BF445248546811002010B504008A
:1056A000002C01D10E2008E020680449884201D076
:1056B0000E2002E0200003F003FA10BD44524854CB
:1056C000EFF3108172B60248006881F310887047CA
:1056D00034190420EFF3108172B6024A106081F38E
:1056E000108870473419042010B50400002C01D133
:1056F000152008E020680449884201D0152002E006
:10570000200003F027FA10BD4D49544170B5040044
:105710000D001600002C01D1152018E020680C495E
:10572000884201D0152012E0002D01D116200EE094
:1057300008480168EFF305800143B1F1F03F01D360
:10574000132004E032002900200003F01AFA70BD93
:105750004D495441681100202DE9FE4F84B00500E9
:10576000109E129F0024002D02D11520040038E065
:105770001398342802D01520040032E0EFF3108B88
:1057800072B62E480168491C01608BF310882C49C1
:1057900009688846002189462A490968894506D250
:1057A000454504D0D8F8248019F10109F4E7EFF356
:1057B000108A72B60168491E01608AF3108800F0F1
:1057C000F6FB454502D1152004000AE0002E02D167
:1057D0001620040005E0012F03D0002F01D0172070
:1057E0000400002C18D1184800680390039817494A
:1057F000884201D113200400154A1068EFF3058197
:105800000843002808D01168EFF305800143B1F187
:10581000F03F01D213200400002C0AD10297119806
:1058200001900096069B059A0499280003F0B8F9A8
:105830000400200007B0BDE8F08F00BF2419042049
:105840004C1904205019042008190420300D04209C
:105850006811002010B50400002C01D1152008E0CB
:1058600020680449884201D0152002E0200003F09E
:10587000E3F910BD4D49544170B504000025002CDA
:1058800002D1152005001EE020681049884202D090
:105890001520050017E00E480068EFF30581084366
:1058A000002802D0132005000DE00A480068060019
:1058B0000948864201D113200500002D03D12000A4
:1058C00003F032FA0500280070BD00BF4D49544175
:1058D0006811002008190420300D0420FEB50400D2
:1058E0000D0016001F00002C01D115200FE02068CC
:1058F0000749884201D0152009E0099801900898CD
:1059000000903B0032002900200003F039FAFEBD70
:105910004D49544170B40600039D049C002E01D0F3
:10592000FF2014E0002901D0FF2010E0002A01D060
:10593000FF200CE0002B01D0FF2008E0002D01D05B
:10594000FF2004E0002C01D0FF2000E0FF2070BC0D
:10595000704730B40500029C002D01D0FF2010E0FC
:10596000002901D0FF200CE0002A01D0FF2008E030
:10597000002B01D0FF2004E0002C01D0FF2000E02C
:10598000FF2030BC704701000800002801D0FF2034
:1059900000E0FF207047FF2070470300002B01D07C
:1059A000FF2008E0002901D1FF2004E0002A01D1F6
:1059B000FF2000E0FF2070470100002901D0FF20F8
:1059C00000E0FF2070470100002901D0FF2000E027
:1059D000FF20704710B504002000FFF77BFB10BDCF
:1059E000002805D0EFF31082110072B681F3108801
:1059F0007047002805D0EFF31082110072B681F3D2
:105A00001088704730B40500029C002D01D0FF20A3
:105A100010E0002901D0FF200CE0002A01D0FF2077
:105A200008E0002B01D0FF2004E0002C01D0FF2073
:105A300000E0FF2030BC70472DE9FC4704000E0059
:105A40001700002C01D1F42048E000202060DFF88E
:105A500090805FF0FF314046FEF7B6FC21480068B9
:105A6000002836D0002316F1100269461E48FEF7C2
:105A7000EBF80500002D2DD1D7F8A004411CC7F884
:105A8000A014002809D10098C7F89C040098009938
:105A9000486000980099886011E0D7F89C0481461E
:105AA000D9F8080082460098C9F808000098CAF89A
:105AB00004000098C0F808A00098C0F8049000986E
:105AC00007600098C6600098103000900098206031
:105AD00000E01D254046FEF733FD2800BDE8F687AF
